:100000000C943A000C9457000C9457000C94570031
:100010000C9457000C9457000C9457000C94570004
:100020000C9457000C9457000C9457000C945700F4
:100030000C9457000C9457000C9457000C945700E4
:100040000C9457000C9457000C9457000C945700D4
:100050000C9457000C9457000C9457000C945700C4
:100060000C9457000C9457000C9457000C945700B4
:100070000C94570011241FBECFEFD4E0DEBFCDBFDC
:1000800011E0A0E0B1E0E2E7F0E102C005900D92DE
:10009000A83EB107D9F722E0A8EEB1E001C01D9259
:1000A000AB30B207E1F70E9493070C9437080C9429
:1000B00000000E94A8008AEF90E00E9411068AEFDB
:1000C00090E00E948D030E9443030E942B070E9430
:1000D00090070C94AB061092040281E092E00E941B
:1000E000DA0685E092E00E9449066091010287E00D
:1000F00092E00C94510685E092E00E94210685E092
:1001000092E00E94410687E092E00E9461068091A1
:1001100004028436B0F010920402609105027091DE
:10012000060287E092E00E94740687E092E00E9457
:10013000A406882331F061E072E087E092E00C943D
:10014000C406089561E072E087E092E00C94F8063E
:10015000E1E6F0E080E880831082A89584B7877F8D
:1001600084BFE0E6F0E0808188618083108208959A
:100170001092800084E0809381001092850010929C
:1001800084000895809184009091850008959C01D9
:100190008091840090918500AC01421B530B483E36
:1001A0005340B0F708952091840030918500820F6C
:1001B000931F0C94C700CF93DF93EC01D901FB018F
:1001C00020E080E061E070E0841304C02C93DF91B4
:1001D000CF91089591919B01092E02C0220F331FE8
:1001E0000A94E2F72F5F3F4F369527952C0F3D1F5E
:1001F00002C0369527959A95E2F72F3F310531F3E6
:1002000028F38F5FE1CFCF93DF930F92CDB7DEB7A7
:100210009E012F5F3F4F45E062E371E00E94DB00EB
:10022000E82F81E08E0F809300018981815087BD86
:1002300018BC85B5877039F095B58091000187703D
:10024000987F892B85BD898190E0F0E0EE5CFE4FC0
:10025000208102C0880F991F2A95E2F70F90DF9145
:10026000CF91089585B3897F85BB95B580910001B5
:100270008770987F892B85BD089585B5887F85BD5A
:10028000089585B382FB882780F90895009719F0B7
:10029000019751F0089584B58F736295660F660FCC
:1002A000607C682B64BD089584B5629560738F7C13
:1002B000F8CF009721F0019739F080E0089584B5D8
:1002C0008C7F84BD81E0089584B58E7F84BD84B524
:1002D0008260F7CF14BC15BC16BC18BC84B58E7FE9
:1002E00084BD84B5826084BD81E008959C0101973E
:1002F0009093CD0021502093CC000895CF93DF93AD
:10030000EC01888199810E9476018A819BEF980F88
:10031000943008F088E098E19093C9008550880FE8
:100320008093CA0081E0DF91CF9108958091C80049
:10033000881F8827881F08958091C80085FB88271B
:1003400080F908958091C80086FB882780F9089578
:10035000CF93C82F0E949C018823E1F38091C800AD
:1003600080648093C800C093CE00CF91089580919F
:10037000C80087FFFCCF8091CE000895CF93DF9314
:10038000EC018991811103C0DF91CF9108950E9402
:10039000A801F7CF853098F4673088F421E030E089
:1003A00001C0220F6A95EAF7E82FF0E0E751FE4F0F
:1003B000822F8095908189234111822B808308951B
:1003C000853080F4673070F4E82FF0E0E751FE4F9D
:1003D00081E090E001C0880F6A95EAF79081982348
:1003E00081E009F480E008956091E801E62FF0E0F3
:1003F000E751FE4F80810E9441028091E8018F5FAA
:10040000853018F48093E80108951092E80108956A
:10041000E9EEF1E0108211821282138214820895B3
:100420000E941F020C9408029C01FC01FF2784A17A
:10043000832B84A385A1832B85A381E00895CF938B
:10044000DF93C1E4D1E0899199910E94140281E087
:10045000CF34D807C1F783E090E40E94140280E013
:1004600090E80E94140283E090E10E94140283E06D
:1004700090E80E94140283E090E2DF91CF910C9407
:100480001402E091EE01F0E0EE0FFF1FE95CFE4F79
:1004900020813181F901FF2795A1932B95A3A1E438
:1004A000B1E02D913D91F901FF2780FF1CC025A1EE
:1004B000932F9095922395A3869591E0AF34B90739
:1004C00081F7E62FF0E0EE0FFF1FE95CFE4F208181
:1004D0003181F901FF2795A1832F8095892385A379
:1004E0006093EE01089595A1932BE5CF9C016330B5
:1004F0007105A1F040F461307105E1F062307105E1
:1005000011F180E0089564307105D9F7F901FF27F2
:1005100084A1832B84A385A1832B09C0F901FF2724
:1005200084A1832B84A395A1832F8095892385A300
:1005300081E00895F901FF2794A1832F80959823E6
:1005400094A395A1F3CFF901FF2794A1832F809560
:100550008923E0CFE82FF0E0EE0FFF1FE151FE4FBF
:100560008081882329F0818191E089278170089515
:1005700080E0FCCFE82FF0E0EE0FFF1FE151FE4FCF
:100580008081811103C081818170089580E0FCCF5A
:10059000E82FF0E0EE0FFF1FE151FE4F808108953C
:1005A000E82FF0E0EE0FFF1FE151FE4F908181E058
:1005B000892708957F928F929F92AF92BF92CF9298
:1005C000DF92EF92FF920F931F93CF93DF93CFEEC3
:1005D000D1E05FE4C52E51E0D52E66E0762E88810D
:1005E0008983F601019111916F015801BB24F50136
:1005F00024A1E12EFF2485A190E08E219F2130E0EF
:100600002E213F21232BB1F133E0832E912C892B16
:1006100019F094E0892E912C64E070E0C8010E94EA
:10062000760262E070E0C8010E947602872D8A950A
:10063000F1F7F50183A190E0E822F92281E0EF28AB
:1006400009F080E08883B401C8010E9476022296F6
:10065000F1E0C93FDF0719F6DF91CF911F910F91AC
:10066000FF90EF90DF90CF90BF90AF909F908F90D2
:100670007F90089588248394912C892B69F282E0DD
:10068000882E912CC9CF0895FC01892B81F083819C
:10069000681B67FD09C0062E000C770B948181E072
:1006A0009617170609F00CF480E08170089580E039
:1006B0000895FC01A62F622F892B69F181814817CB
:1006C00050F59281291738F59381A91BA7FD23C006
:1006D0000A2E000CBB0B94819A171B06E1F0DCF08C
:1006E0000E94B907480F858190E0BD010E94C207B2
:1006F0009C01942F969596959695E20FF31FE90F1E
:10070000F11D868190E0477002C0959587954A95C6
:10071000E2F78170089580E00895CF93DF93EC01B4
:100720000E94B8009E0150E040E062E17AE780E07C
:1007300090E00E94E7073093FC012093FB01DF91DA
:10074000CF9108958091F9019091FA010E94C7001C
:100750008091F9019091FA012091FB013091FC0107
:10076000820F931F9093FA018093F9010895692FE6
:100770000C94E00141E0611101C040E0692F0C944C
:10078000CA010C94BA035F926F927F928F929F92EC
:10079000AF92BF92CF92DF92EF92FF920F931F938F
:1007A000CF93DF93862E772E942E682E592EB62E59
:1007B000A72E062E000C770BE82F082E000CFF0B3F
:1007C0008B010E1B1F0B272D072C000C330B492F01
:1007D000092E000C550BE901C41BD50B17FF59C09E
:1007E000DD24DA94D7FD02C0DD24D3948F01061BEB
:1007F000170BCC24CA94D7FF03C0EA01C21BD30B4A
:100800000C171D076CF1780117FF03C08FEFE81A72
:10081000F80AF594E794A92E681014C0692D8B2D61
:100820009A2DDF91CF911F910F91FF90EF90DF9064
:10083000CF90BF90AF909F908F907F906F905F9080
:100840000C94BA03692D862D9A2D0E94BA03EC1AD6
:10085000FD0AF7FE03C0E00EF11EAD0C6C0CDCCF00
:100860007E01D7FF03C09FEFE91AF90AF594E794D8
:10087000B82E571499F2692D8B2D952D0E94BA032D
:10088000E01AF10AF7FE03C0EC0EFD1EBC0C5D0C75
:10089000F0CFCC24C394DD24DA94D7FDAECFDD2491
:1008A000D394AECFFF920F931F93CF93DF93D82FA4
:1008B000F92E162FC72F042F792F0E94C303402F24
:1008C0006D2F7C2F8D2F9F2D0E94C303402F612FF2
:1008D0007C2F812F9F2D0E94C303402F612F7C2FDF
:1008E0008D2F9C2FDF91CF911F910F91FF900C9432
:1008F000C3030E940802E1E0F1E0118A1486089522
:10090000DF92EF92FF920F931F93CF93DF93D82E36
:100910007B01C62F0F2D8091030190910401D0E03F
:10092000019751F1CE2DCD0FE0910901F0910A010F
:100930008181D81708F45CC0D0E0E0910901F09102
:100940000A018281D81708F455C0CF5F27C0212F34
:100950004D2F6D2D0E945903682F8E2D810F902FE2
:100960000E94BA031F5F8091090190910A01FC0166
:100970002281121760F3DF5F0F2D0D1BE09109013B
:10098000F0910A018181D81798F0D0E0E091090137
:10099000F0910A018281D81768F001508C2F902FB6
:1009A000DF91CF911F910F91FF90EF90DF9008950D
:1009B00010E0D9CF60E08E2D8D0F902F0E94BA03EA
:1009C000DF5FE4CF212F4D2F6D2D0E945903682F3B
:1009D0008C2F9F2D910F0E94BA031F5F80910901F8
:1009E00090910A01FC012281121760F3DF5F9ACF18
:1009F00010E0F4CF60E08C2F9F2D9D0F0E94BA0372
:100A0000DF5F9BCF1F93CF93DF93EC0110E08991C1
:100A1000882341F00E948004BC011F5F853014F4DC
:100A200077FFF5CF812FDF91CF911F9108950F931D
:100A30001F93CF93DF93EC01362F272F10920D01D8
:100A400040930E01109211010091090110910A01C9
:100A50000115110509F446C0F80181816091070173
:100A60007091080190E00E94C207BC0180910B01C7
:100A700090910C010E94D307CB016AE070E00E94C4
:100A8000C2079093100180930F01309305012093CA
:100A9000060140E250E0BE0182E191E00E94280898
:100AA00080910101909102010197E1F4FE01019012
:100AB0000020E9F73197BF016C1B7D0BF8018181A4
:100AC0008F5F0E94B907815020910301309104018A
:100AD00095E02130310509F497E0981718F48EEF6E
:100AE00080931101DF91CF911F910F910895209173
:100AF00003013091040170E02130310509F476E002
:100B00004FEF60E00C94170590E0909308018093FC
:100B10000701089590930201809301010895909335
:100B2000040180930301089590930A0180930901C1
:100B300008958091FD019091FE0101969093FE0130
:100B40008093FD0120910F013091100182179307CE
:100B500008F441C01092FE011092FD01E0910D01D8
:100B6000F0E0EF5FFE4F8189811109C080910E0195
:100B7000823088F1815080930E0110920D01809196
:100B80000D0190E0FC01EF5FFE4F2189222319F156
:100B9000409101015091020120911101411551052F
:100BA000E1F04130510551F1809111018F5F809347
:100BB0001101082E000C990BE0910901F0910A0136
:100BC0002181281719063CF41092110180910D0122
:100BD0008F5F80930D010C94F4012111E5CF60919A
:100BE0000501709106018E5E9E4F0E940205909154
:100BF0000D019150980F90930D01D6CF6091050192
:100C0000709106014091030150910401413051055A
:100C100031F4720F8E5E9E4F0E940205C5CF621B9B
:100C2000F9CFCF93DF93C1E0D1E09B878A870E9401
:100C3000100284E190E09F838E83DF91CF910C942A
:100C40007904CF93DF93EC0182E00E94AA0288230B
:100C500041F08981863029F098819F5F98838F5F6A
:100C6000898380E00E94AA02882341F0888188233A
:100C700029F081508883898181508983DF91CF91C8
:100C80000895FC01718141E064E084E090810C945E
:100C9000C303FC0183E0808384E08183CF010C9453
:100CA0004106FC01662331F081E0818310821282CB
:100CB000138208958AE08183808381E08283838325
:100CC000089561E0FC01808191810C94BA03FC01DC
:100CD0008081833031F4918181E0961721F097175C
:100CE00011F080E008950895CF93DF93EC0188819F
:100CF0009B819923C9F08150888389819A819923A6
:100D0000A9F08F5F8983863008F01A82888181116B
:100D100001C01B82CE010E946706882311F081E08A
:100D20008B83DF91CF9108958F5FE6CF81508983C8
:100D30008111ECCF81E08A83E9CFFC0181E09081D1
:100D4000933009F080E00895FC0181E090819530B6
:100D500009F080E0089589E591E00E9494058AE019
:100D60000E94840581E090E00E948A0581E090E085
:100D70000E948F0588ED91E00C9477050C949905FD
:100D80000E94AB060C949905CF93DF93FC01EB0115
:100D90008181880F9281892B0E94190781E08883C5
:100DA000DF91CF9108950E940F0781110C941107D4
:100DB00080E008950F931F93CF938C010E948607C4
:100DC00080E00E945807C82F882351F081E0F80185
:100DD00080830E9419078C2FCF911F910F91089546
:100DE0000E94D3068130B9F7F8011082C1E0F3CF39
:100DF0000F931F93CF93DF93EC018B010E94D306D7
:100E0000882341F0982F91709A838595898381E09A
:100E1000F8018083DF91CF911F910F9108950C9479
:100E200096010C94B7010C949C010C94A2010C94B3
:100E3000A8010E94A8010E94A2018823E1F38CE28C
:100E400091E00197F1F70E94960181110C9411072E
:100E500008950C94BE01CF93DF9300D00F92CDB7CD
:100E6000DEB78091D5019091D601A091D7018983F9
:100E70009A83AB83509A589A0E946A018FE690E059
:100E80000E94030181E090E00E94590161E070E05E
:100E900081E090E00E9446010E943201CE0101965D
:100EA0000E947E010F900F900F90DF91CF910895D7
:100EB00081110CC08091FF01882331F080910002E4
:100EC00091E089278170089580E0FCCF80E008954B
:100ED00081110AC08091FF01811104C0809100023C
:100EE0008170089580E0FCCF80E00895811103C0F7
:100EF0008091FF01089580E00895811105C08091DF
:100F0000FF0191E08927089580E00895EFEFF1E077
:100F10008081818389B1881F8827881F80830895F5
:100F200057985F9808950E94590081E092E00E94CE
:100F3000DA068823B1F00E946B000E94A2030E948F
:100F4000DA020E94790480910102882379F00E94DC
:100F50007B000E949905809104028F5F80930402B8
:100F6000ECCF0E94BE060E94A203DFCF0E94A20027
:100F7000F0CF002480FD060E660F11F08695D1F7A4
:100F8000802D08950024552704C0080E591F880F8E
:100F9000991F009729F076956795B8F37105B9F711
:100FA000802D952F0895AA1BBB1B51E107C0AA1FD6
:100FB000BB1FA617B70710F0A61BB70B881F991FFA
:100FC0005A95A9F780959095BC01CD010895052EFD
:100FD00097FB1EF400940E94FE0757FD07D00E9465
:100FE000060807FC03D04EF40C94FE07509540957C
:100FF000309521953F4F4F4F5F4F089590958095C5
:10100000709561957F4F8F4F9F4F0895A1E21A2EE3
:10101000AA1BBB1BFD010DC0AA1FBB1FEE1FFF1F9C
:10102000A217B307E407F50720F0A21BB30BE40BEC
:10103000F50B661F771F881F991F1A9469F7609533
:101040007095809590959B01AC01BD01CF010895ED
:10105000FB01DC014150504048F001900D9200200E
:10106000C9F701C01D9241505040E0F70895F8942F
:02107000FFCFB0
:101072000100000000000014000000000000000059
:10108200000000000000000000000000000000005E
:10109200000000000000000000000000000000004E
:1010A2000000000306080A034000800310038003C7
:1010B200200040002000100008000400020001038C
:1010C200800340032000800310010305203B02003F
:1010D200009220EB737D5FDE3DA552EA7A14004A4E
:1010E200222229BA2ED0050014C0010020A4126ABF
:1010F2002B9A74A372A338ED498F38CE2AA712AA6D
:101102002AAE49100410145444380E11152A250031
:1011120000EA5BEB3A4F726B3BCF73CF134F7AED22
:101122005B9774247B5D564972FD5B6F5B6F7BEF4F
:10113200136F7FEF57CE3897246D7B6D2BED5FAD2C
:101142005AAD24A772D0000857454C434F4D452055
:08115200544F20504F4E47009E
:00000001FF
