:100000000C943A000C9457000C9457000C94570031
:100010000C9457000C9457000C9457000C94570004
:100020000C9457000C9457000C9457000C945700F4
:100030000C9457000C9457000C9457000C945700E4
:100040000C9457000C9457000C9457000C945700D4
:100050000C9457000C9457000C9457000C945700C4
:100060000C9457000C9457000C9457000C945700B4
:100070000C94570011241FBECFEFD4E0DEBFCDBFDC
:1000800012E0A0E0B1E0ECE9F1E102C005900D92D0
:10009000AA32B107D9F722E0AAE2B2E001C01D926C
:1000A000AB34B207E1F70E94E8070C94CC080C943B
:1000B00000000E94B1008AEF90E00E941A068AEFC9
:1000C00090E00E9496030E944C030E947E070E94CB
:1000D000CA061092420210924102089585E492E00D
:1000E0000E9452066091430287E492E00E94590602
:1000F0001092440281E080934202089587E492E0E6
:100100000E94690690914402809141029817D0F0B4
:100110001092440287E492E00E94B306882351F0D3
:1001200080914A02882331F063E472E087E492E030
:100130000C942807609145027091460287E492E092
:100140000C948E060895482F63E472E087E492E0F1
:100150000E94440787E492E00E94690610924402DC
:100160000895E1E6F0E080E880831082A89584B7E6
:10017000877F84BFE0E6F0E0808188618083108221
:1001800008951092800084E0809381001092850091
:1001900010928400089580918400909185000895C4
:1001A0009C018091840090918500AC01421B530B0F
:1001B000483E5340B0F70895209184003091850067
:1001C000820F931F0C94D000CF93DF93EC01D901E1
:1001D000FB0120E080E061E070E0841304C02C9318
:1001E000DF91CF91089591919B01092E02C0220FBA
:1001F000331F0A94E2F72F5F3F4F369527952C0F58
:100200003D1F02C0369527959A95E2F72F3F31059D
:1002100031F328F38F5FE1CFCF93DF930F92CDB708
:10022000DEB79E012F5F3F4F45E062E371E00E9421
:10023000E400E82F81E08E0F8093000189818150D6
:1002400087BD18BC85B5877039F095B580910001E0
:100250008770987F892B85BD898190E0F0E0EE5C06
:10026000FE4F208102C0880F991F2A95E2F70F9058
:10027000DF91CF91089585B3897F85BB95B5809136
:1002800000018770987F892B85BD089585B5887F8B
:1002900085BD089585B382FB882780F9089500976E
:1002A00019F0019751F0089584B58F736295660F28
:1002B000660F607C682B64BD089584B56295607399
:1002C0008F7CF8CF009721F0019739F080E00895F6
:1002D00084B58C7F84BD81E0089584B58E7F84BD14
:1002E00084B58260F7CF14BC15BC16BC18BC84B5AD
:1002F0008E7F84BD84B5826084BD81E008959C01B9
:1003000001979093CD0021502093CC000895CF9376
:10031000DF93EC01888199810E947F018A819BEFA4
:10032000980F943008F088E098E19093C9008550C8
:10033000880F8093CA0081E0DF91CF91089580916A
:10034000C800881F8827881F08958091C80085FBF2
:10035000882780F908958091C80086FB882780F956
:100360000895CF93C82F0E94A5018823E1F38091BF
:10037000C80080648093C800C093CE00CF910895D8
:100380008091C80087FFFCCF8091CE000895CF9365
:10039000DF93EC018991811103C0DF91CF91089522
:1003A0000E94B101F7CF853098F4673088F421E0DE
:1003B00030E001C0220F6A95EAF7E82FF0E0E55D32
:1003C000FD4F822F8095908189234111822B80835C
:1003D0000895853080F4673070F4E82FF0E0E55D33
:1003E000FD4F81E090E001C0880F6A95EAF79081A7
:1003F000982381E009F480E0089560912A02E62FB5
:10040000F0E0E55DFD4F80810E944A0280912A0262
:100410008F5F853018F480932A02089510922A0283
:100420000895EBE2F2E010821182128213821482AC
:1004300008950E9428020C9411029C01FC01FF27E0
:1004400084A1832B84A385A1832B85A381E00895B8
:10045000CF93DF93C1E4D1E0899199910E941D026D
:1004600081E0CF34D807C1F783E090E40E941D02F9
:1004700080E090E80E941D0283E090E10E941D024E
:1004800083E090E80E941D0283E090E2DF91CF912B
:100490000C941D02E0913002F0E0EE0FFF1FE95CCA
:1004A000FE4F20813181F901FF2795A1932B95A360
:1004B000A1E4B1E02D913D91F901FF2780FF1CC01F
:1004C00025A1932F9095922395A3869591E0AF3423
:1004D000B90781F7E62FF0E0EE0FFF1FE95CFE4F52
:1004E00020813181F901FF2795A1832F80958923F0
:1004F00085A360933002089595A1932BE5CF9C01CD
:1005000063307105A1F040F461307105E1F06230B3
:10051000710511F180E0089564307105D9F7F90192
:10052000FF2784A1832B84A385A1832B09C0F90114
:10053000FF2784A1832B84A395A1832F80958923F2
:1005400085A381E00895F901FF2794A1832F809569
:10055000982394A395A1F3CFF901FF2794A1832FAA
:1005600080958923E0CFE82FF0E0EE0FFF1FEF5CCE
:10057000FD4F8081882329F0818191E08927817056
:10058000089580E0FCCFE82FF0E0EE0FFF1FEF5C56
:10059000FD4F8081811103C081818170089580E0C9
:1005A000FCCFE82FF0E0EE0FFF1FEF5CFD4F8081E6
:1005B0000895E82FF0E0EE0FFF1FEF5CFD4F9081F4
:1005C00081E0892708957F928F929F92AF92BF9288
:1005D000CF92DF92EF92FF920F931F93CF93DF930F
:1005E000C1E3D2E05FE4C52E51E0D52E66E0762E61
:1005F00088818983F601019111916F015801BB2413
:10060000F50124A1E12EFF2485A190E08E219F21F8
:1006100030E02E213F21232BB1F133E0832E912CAA
:10062000892B19F094E0892E912C64E070E0C801C8
:100630000E947F0262E070E0C8010E947F02872D65
:100640008A95F1F7F50183A190E0E822F92281E093
:10065000EF2809F080E08883B401C8010E947F027E
:100660002296F2E0CB33DF0719F6DF91CF911F918D
:100670000F91FF90EF90DF90CF90BF90AF909F9041
:100680008F907F90089588248394912C892B69F210
:1006900082E0882E912CC9CF0895FC01892B81F02E
:1006A0008381681B67FD09C0062E000C770B9481BF
:1006B00081E09617170609F00CF480E08170089528
:1006C00080E00895FC01A62F622F892B69F18181BA
:1006D000481750F59281291738F59381A91BA7FD7A
:1006E00023C00A2E000CBB0B94819A171B06E1F065
:1006F000DCF00E944E08480F858190E0BD010E9409
:1007000057089C01942F969596959695E20FF31FA6
:10071000E90FF11D868190E0477002C0959587959D
:100720004A95E2F78170089580E00895CF93DF93B2
:10073000EC010E94C1009E0150E040E062E17AE7D6
:1007400080E090E00E947C0830933E0220933D02BE
:10075000DF91CF91089580913B0290913C020E94DD
:10076000D00080913B0290913C0220913D0230915B
:100770003E02820F931F90933C0280933B020895A8
:10078000692F0C94E90141E0611101C040E0692F3B
:100790000C94D3010C94C3035F926F927F928F925B
:1007A0009F92AF92BF92CF92DF92EF92FF920F9300
:1007B0001F93CF93DF93862E772E942E682E592E7B
:1007C000B62EA72E062E000C770BE82F082E000C55
:1007D000FF0B8B010E1B1F0B272D072C000C330B5F
:1007E000492F092E000C550BE901C41BD50B17FF2F
:1007F00059C0DD24DA94D7FD02C0DD24D3948F01E3
:10080000061B170BCC24CA94D7FF03C0EA01C21BF6
:10081000D30B0C171D076CF1780117FF03C08FEF86
:10082000E81AF80AF594E794A92E681014C0692D07
:100830008B2D9A2DDF91CF911F910F91FF90EF900B
:10084000DF90CF90BF90AF909F908F907F906F90F0
:100850005F900C94C303692D862D9A2D0E94C303CB
:10086000EC1AFD0AF7FE03C0E00EF11EAD0C6C0C95
:10087000DCCF7E01D7FF03C09FEFE91AF90AF59498
:10088000E794B82E571499F2692D8B2D952D0E945F
:10089000C303E01AF10AF7FE03C0EC0EFD1EBC0C08
:1008A0005D0CF0CFCC24C394DD24DA94D7FDAECF19
:1008B000DD24D394AECFFF920F931F93CF93DF939A
:1008C000D82FF92E162FC72F042F792F0E94CC0373
:1008D000402F6D2F7C2F8D2F9F2D0E94CC03402FFA
:1008E000612F7C2F812F9F2D0E94CC03402F612FE1
:1008F0007C2F8D2F9C2FDF91CF911F910F91FF9017
:100900000C94CC030E941102E1E0F1E0118A1486FC
:100910000895DF92EF92FF920F931F93CF93DF938F
:10092000D82E7B01C62F0F2D8091030190910401D9
:10093000D0E0019751F1CE2DCD0FE0910901F0915A
:100940000A018181D81708F45CC0D0E0E091090168
:10095000F0910A018281D81708F455C0CF5F27C0F3
:10096000212F4D2F6D2D0E946203682F8E2D810F38
:10097000902F0E94C3031F5F8091090190910A018B
:10098000FC012281121760F3DF5F0F2D0D1BE09138
:100990000901F0910A018181D81798F0D0E0E09127
:1009A0000901F0910A018281D81768F001508C2F5B
:1009B000902FDF91CF911F910F91FF90EF90DF90DB
:1009C000089510E0D9CF60E08E2D8D0F902F0E94FA
:1009D000C303DF5FE4CF212F4D2F6D2D0E946203F3
:1009E000682F8C2F9F2D910F0E94C3031F5F809152
:1009F000090190910A01FC012281121760F3DF5F67
:100A00009ACF10E0F4CF60E08C2F9F2D9D0F0E94B5
:100A1000C303DF5F9BCF1F93CF93DF93EC0110E005
:100A20008991882341F00E948904BC011F5F8530B1
:100A300014F477FFF5CF812FDF91CF911F910895A7
:100A40000F931F93CF93DF93EC01362F272F109234
:100A50000D0140930E0110921101009109011091B6
:100A60000A010115110509F446C0F8018181609160
:100A700007017091080190E00E945708BC01809125
:100A80000B0190910C010E946808CB016AE070E0B4
:100A90000E9457089093100180930F013093050135
:100AA0002093060140E250E0BE0182E191E00E9405
:100AB000BD0880910101909102010197E1F4FE01CE
:100AC00001900020E9F73197BF016C1B7D0BF80105
:100AD00081818F5F0E944E088150209103013091E7
:100AE000040195E02130310509F497E0981718F4D6
:100AF0008EEF80931101DF91CF911F910F91089597
:100B0000209103013091040170E02130310509F496
:100B100076E04FEF60E00C94200590E090930801A0
:100B20008093070108959093020180930101089535
:100B30009093040180930301089590930A01809398
:100B40000901089580913F0290914002019690938F
:100B5000400280933F0220910F01309110018217D3
:100B6000930708F441C01092400210923F02E091B6
:100B70000D01F0E0EF5FFE4F8189811109C0809186
:100B80000E01823088F1815080930E0110920D0188
:100B900080910D0190E0FC01EF5FFE4F218922233F
:100BA00019F140910101509102012091110141156B
:100BB0005105E1F04130510551F1809111018F5FF4
:100BC00080931101082E000C990BE0910901F0911E
:100BD0000A012181281719063CF410921101809115
:100BE0000D018F5F80930D010C94FD012111E5CF64
:100BF00060910501709106018E5E9E4F0E940B056B
:100C000090910D019150980F90930D01D6CF609166
:100C1000050170910601409103015091040141309A
:100C2000510531F4720F8E5E9E4F0E940B05C5CFA9
:100C3000621BF9CFCF93DF93C1E0D1E09B878A8716
:100C40000E94190284E190E09F838E83DF91CF910F
:100C50000C948204CF93DF93EC0182E00E94B302F4
:100C6000882341F08981863029F098819F5F98839D
:100C70008F5F898380E00E94B302882341F08881DE
:100C8000882329F081508883898181508983DF916D
:100C9000CF910895FC01718141E064E084E090818E
:100CA0000C94CC03FC01108281E08183CF010C9471
:100CB0004A06FC01662331F081E0818310821282B2
:100CC000138208958AE08183808381E08283838315
:100CD000089561E0FC01808191810C94C303FC01C3
:100CE00081819281992331F08F5F8183863040F03A
:100CF0001282089581508183811102C081E0828334
:100D00000895FC018081833031F4918181E0961750
:100D100021F0971711F080E0089508950F931F9325
:100D2000CF93DF93EC018B0188819B81992391F014
:100D300081508883CE010E946F06B801CE010E94C7
:100D40008106882311F081E08B83DF91CF911F9181
:100D50000F9108958F5FEDCFFC0181E09081943079
:100D600009F080E00895FC0181E09081911180E01C
:100D7000089589E591E00E949D058AE00E948D0515
:100D800081E090E00E94930581E090E00E94980548
:100D90000C9482040E94B90688ED91E00C948005C1
:100DA000CF93C82F0E94B90688EE91E0C43631F087
:100DB0008DEE91E0CB3411F084EF91E0CF910C9463
:100DC00080051F93CF93DF93EC0184E00E94B30270
:100DD000182F811107C08881811109C084E688839A
:100DE0000E94D006812FDF91CF911F910895843604
:100DF00039F483E00E94B3028823A1F38BE4EFCFA0
:100E00008B3461F481E00E94B3028111E7CF83E06B
:100E10000E94B302882331F382E3E1CF823311F7DA
:100E200081E0E8CF0E94B90689EF91E00C9480053B
:100E30000E94B90682E192E00C948005843629F084
:100E40008B3419F0823309F080E008950C946C071C
:100E50000F931F93CF93DF93EC018B018981880F50
:100E60009A81892B0E946C078AE08883F80110829E
:100E7000DF91CF911F910F9108950E946207811118
:100E80000C9464078FE70895FC01DB014031C8F43E
:100E9000842F809581708283459586E0841B8183B1
:100EA0001082138291E09C938181811102C0918311
:100EB0000895863019F485E081830895CF010C945C
:100EC0006F0608950C949F010C94C0010C94A50129
:100ED0000C94AB010C94B1010E94B1010E94AB01D2
:100EE0008823E1F38CE291E00197F1F70E949F01E2
:100EF00081110C94640708950C94C701CF93DF937C
:100F000000D00F92CDB7DEB78091D5019091D60178
:100F1000A091D70189839A83AB83509A589A0E94F3
:100F200073018FE690E00E940C0181E090E00E9446
:100F3000620161E070E081E090E00E944F010E9458
:100F40003B01CE0101960E9487010F900F900F90F8
:100F5000DF91CF9108950E946607882319F089E1F7
:100F60000C946C070895FF920F931F93CF93DF9318
:100F7000182FD92FF62E072F0E94AC06C82F8111EB
:100F800008C0C0E08C2FDF91CF911F910F91FF908F
:100F900008956F2D702F812F9D2F0E948106811142
:100FA000F0CF0E94AB07EECF982F81E0993109F086
:100FB00080E00895CF93C42F0E94B307811105C02C
:100FC00082E0C93119F081E001C083E0CF9108953A
:100FD0000E945900D1E00E943D07C82F0E941E07C1
:100FE00090914202913059F50E94820485E492E08A
:100FF0000E942A0685E492E00E944A0680914302FC
:101000008823C9F00E947E006091450270914602DB
:101010004C2F87E492E00E94DA07809342020E94FC
:10102000AB030E94E3020E94A205809144028F5FFD
:1010300080934402D0CF8C2F0E94A300E5CF882359
:1010400039F080934102109243020E946E00E7CF74
:10105000911107C084E00E94B302882301F384E069
:10106000DCCF943069F481E492E00E94E1068823A9
:10107000B1F2D0934302809141020E942607E5CF4E
:10108000933039F40E9412071092420210924102EA
:10109000C6CF923021F60E941807F6CF002480FDBB
:1010A000060E660F11F08695D1F7802D0895002465
:1010B000552704C0080E591F880F991F009729F063
:1010C00076956795B8F37105B9F7802D952F08953A
:1010D000AA1BBB1B51E107C0AA1FBB1FA617B7075E
:1010E00010F0A61BB70B881F991F5A95A9F780957A
:1010F0009095BC01CD010895052E97FB1EF4009438
:101100000E94930857FD07D00E949B0807FC03D05C
:101110004EF40C94930850954095309521953F4F8F
:101120004F4F5F4F089590958095709561957F4FD3
:101130008F4F9F4F0895A1E21A2EAA1BBB1BFD01E2
:101140000DC0AA1FBB1FEE1FFF1FA217B307E407A6
:10115000F50720F0A21BB30BE40BF50B661F771FFE
:10116000881F991F1A9469F76095709580959095DE
:101170009B01AC01BD01CF010895FB01DC01415091
:10118000504048F001900D920020C9F701C01D9217
:0C11900041505040E0F70895F894FFCF64
:10119C00010000000000001400000000000000002E
:1011AC000000000000000000000000000000000033
:1011BC000000000000000000000000000000000023
:1011CC000000000306080A0340008003100380039C
:1011DC002000400020001000080004000200010361
:1011EC00800340032000800310010305203B020014
:1011FC00009220EB737D5FDE3DA552EA7A14004A23
:10120C00222229BA2ED0050014C0010020A4126A93
:10121C002B9A74A372A338ED498F38CE2AA712AA41
:10122C002AAE49100410145444380E11152A250006
:10123C0000EA5BEB3A4F726B3BCF73CF134F7AEDF7
:10124C005B9774247B5D564972FD5B6F5B6F7BEF24
:10125C00136F7FEF57CE3897246D7B6D2BED5FAD01
:10126C005AAD24A772D0000857454C434F4D45202A
:10127C00544F20504F4E470045415359004D454463
:10128C0049554D0048415244004C4F535421205075
:10129C0055534820544F20504C4159204147414907
:1012AC004E00574F4E21205055534820544F20503C
:0A12BC004C415920414741494E00C2
:00000001FF
